:020000040804EE
:1000000000000220250A04085D08040863080408AB
:10001000690804086F080408750804080000000057
:100020000000000000000000000000007B08040841
:10003000890804080000000097080408A5080408BF
:10004000750A0408750A0408750A0408750A040884
:10005000750A0408750A0408750A0408750A040874
:10006000750A0408750A0408750A0408750A040864
:10007000750A0408750A0408750A0408750A040854
:10008000750A0408750A0408750A040800000000CF
:10009000000000000000000000000000750A0408D5
:1000A000750A0408750A0408750A0408750A040824
:1000B000750A0408750A0408750A0408750A040814
:1000C000750A0408750A0408750A0408750A040804
:1000D000750A0408750A0408750A0408000000007F
:1000E000750A0408750A0408750A0408000000006F
:1000F000000000000000000000000000750A040875
:1001000000000000750A0408750A0408750A04084E
:1001100000000000000000000000000000000000DF
:10012000750A0408750A0408750A0408750A0408A3
:10013000750A040800000000000000000000000034
:10014000000000000000000000000000750A040824
:10015000750A0408750A0408750A0408750A040873
:10016000750A0408750A0408000000000000000079
:10017000000000000000000000000000000000007F
:1001800000000000750A04080000000000000000E4
:08019000750A0408750A040851
:1001A00010B5054C237833B9044B13B10448AFF3B1
:1001B00000800123237010BD6800002000000000B3
:1001C0005C2F040808B5034B1BB103490348AFF388
:1001D000008008BD000000006C0000205C2F0408B7
:1001E00001F0FF01102A2BDB10F0070F08D010F8E8
:1001F000013B013A8B422DD010F0070F42B3F6D1EC
:10020000F0B441EA012141EA014122F007047FF004
:1002100000070023F0E80256083C85EA010586EA5B
:10022000010685FA47F5A3FA87F586FA47F6A5FA97
:1002300087F68EB9EED1F0BC01F0FF0102F00702A3
:1002400032B110F8013B013A83EA010313B1F8D14E
:100250000020704701387047002D06BF354603382F
:10026000073815F0010F07D1013015F4807F02BF68
:10027000013015F4C03F0130F0BC0138704700BFB9
:1002800053B94AB9002908BF00281CBF4FF0FF31FD
:100290004FF0FF3000F070B9ADF1080C6DE904CEFD
:1002A00000F006F8DDF804E0DDE9022304B0704751
:1002B0002DE9F047089E0D4604460F46002B4AD113
:1002C0008A42944665D9B2FA82F343B102FA03FC3A
:1002D000C3F120029F4020FA02F217439C404FEAEC
:1002E0001C4E1FFA8CF5B7FBFEF1220C0EFB1177AA
:1002F00042EA074201FB05F090420AD91CEB0202D8
:1003000001F1FF3780F01C81904240F219810239DF
:100310006244121AA4B2B2FBFEF00EFB102244EAB1
:10032000024400FB05F5A5420AD91CEB040400F1C8
:10033000FF3280F00781A54240F204816444023814
:1003400040EA0140641B00211EB1DC400023C6E9E5
:100350000043BDE8F0878B4208D9002E00F0ED8005
:100360000021C6E900050846BDE8F087B3FA83F12D
:10037000002949D1AB4202D3824200F2F880841AAC
:1003800065EB030201201746002EE2D0C6E90047C4
:10039000DFE702B9FFDEB2FA82F3002B40F0908073
:1003A0008A1A4FEA1C471FFA8CFE0121B2FBF7F5AF
:1003B00007FB1520220C42EA00420EFB05F090429A
:1003C00008D91CEB020205F1FF3802D2904200F27C
:1003D000CB804546121AA4B2B2FBF7F007FB1022FD
:1003E00044EA02440EFB00FEA64508D91CEB0404B7
:1003F00000F1FF3202D2A64500F2BB801046A4EB0A
:100400000E0440EA05409FE7C1F120078B4022FA25
:1004100007FC4CEA030C05FA01F420FA07F3FD404F
:100420004FEA1C492343B5FBF9F81FFA8CFE09FB80
:1004300018551C0C44EA054408FB0EF5A54202FAC7
:1004400001F200FA01F00BD91CEB040408F1FF3AA9
:1004500080F08880A54240F28580A8F102086444BB
:10046000641B9DB2B4FBF9F309FB134445EA044451
:1004700003FB0EFEA64508D91CEB040403F1FF356F
:100480006CD2A6456AD9023B644443EA0843A3FB05
:100490000295A4EB0E04AC42C846AE4656D353D0E8
:1004A00056B1B0EB080264EB0E0404FA07F7CA4039
:1004B000CC401743C6E9007418460021BDE8F08718
:1004C000C3F1200102FA03FC20FA01F225FA01F13E
:1004D0009D402A434FEA1C471FFA8CFEB1FBF7F000
:1004E00007FB1015110C41EA054100FB0EF58D428A
:1004F00004FA03F408D91CEB010100F1FF382FD2F4
:100500008D422DD902386144491B92B2B1FBF7F5F7
:1005100007FB151142EA014205FB0EF1914208D991
:100520001CEB020205F1FF3816D2914214D9023DAC
:100530006244521A45EA004138E73146304608E73E
:100540003946E6E61046FBE64845A9D2B9EB020873
:1005500065EB0C0E013BA3E74546EAE72B4694E723
:100560004046D1E7D0467BE7023D624432E7084689
:100570000AE76444023842E7704700BF80B500AF25
:1005800000F07AFA00F018F800F09EF800F072F827
:10059000002302221946064801F06CFE802105481E
:1005A00000F083FD4FF47A7000F0D8FAF6E700BF50
:1005B000742F04080004024080B594B000AF07F126
:1005C000200330220021184601F0A9FE07F10C0398
:1005D00000221A605A609A60DA601A610023BB60D8
:1005E000224B1B6C214A43F0805313641F4B1B6C3E
:1005F00003F08053BB60BB6800237B601C4B1B680F
:100600001B4A43F440431360194B1B6803F44043F7
:100610007B607B6802233B620123FB6210233B6308
:100620000023BB6307F12003184600F059FD034681
:10063000002B01D000F09CF80F23FB6000233B61EE
:1006400000237B610023BB610023FB6107F10C03E6
:100650000021184600F0BCFF0346002B01D000F03B
:1006600087F800BF5037BD4680BD00BF003802404C
:100670000070004080B500AF114B124A1A60104B59
:100680004FF4E1325A600E4B00229A600C4B00226C
:10069000DA600B4B00221A61094B0C225A61084B9D
:1006A00000229A61064B0022DA61054801F070F9D8
:1006B0000346002B01D000F05BF800BF80BD00BFF7
:1006C000840000200010014080B588B000AF07F121
:1006D0000C0300221A605A609A60DA601A610023E3
:1006E000BB60184B1B6B174A43F001031363154B98
:1006F0001B6B03F00103BB60BB6800237B60114BE5
:100700001B6B104A43F0020313630E4B1B6B03F089
:1007100002037B607B68002280210B4800F0ACFC68
:100720008023FB6001233B6100237B610023BB61CD
:1007300007F10C031946044800F01AFB00BF2037EC
:10074000BD4680BD003802400004024080B582B042
:1007500000AF7860391D4FF0FF330122034801F0EC
:1007600064F97B6818460837BD4680BD84000020C8
:1007700080B400AF72B600BFFEE7000080B483B063
:1007800000AF00237B60104B5B6C0F4A43F4804347
:1007900053640D4B5B6C03F480437B607B680023E8
:1007A0003B60094B1B6C084A43F080531364064BB3
:1007B0001B6C03F080533B603B6800BF0C37BD46A9
:1007C0005DF8047B704700BF0038024080B58AB0F6
:1007D00000AF786007F1140300221A605A609A6033
:1007E000DA601A617B681B68194A93422CD1002396
:1007F0003B61184B5B6C174A43F010035364154B75
:100800005B6C03F010033B613B690023FB60114B01
:100810001B6B104A43F0010313630E4B1B6B03F079
:100820000103FB60FB684FF4C0637B610223BB6183
:100830000023FB6103233B6207237B6207F1140360
:100840001946054800F094FA00BF2837BD4680BD20
:1008500000100140003802400000024080B400AFA8
:10086000FEE780B400AFFEE780B400AFFEE780B4DF
:1008700000AFFEE780B400AFFEE780B400AF00BF7A
:10088000BD465DF8047B704780B400AF00BFBD4635
:100890005DF8047B704780B400AF00BFBD465DF8D3
:1008A000047B704780B500AF00F038F900BF80BD11
:1008B00080B586B000AFF860B9607A6000237B61D4
:1008C0000AE0AFF300800146BB685A1CBA60CAB2A6
:1008D0001A707B6901337B617A697B689A42F0DB2D
:1008E0007B6818461837BD4680BD80B586B000AF1E
:1008F000F860B9607A6000237B6109E0BB685A1C2C
:10090000BA601B781846FFF721FF7B6901337B61D2
:100910007A697B689A42F1DB7B6818461837BD46D6
:1009200080BD80B483B000AF78604FF0FF331846CD
:100930000C37BD465DF8047B704780B483B000AFD0
:10094000786039603B684FF400525A6000231846C3
:100950000C37BD465DF8047B704780B483B000AFB0
:100960007860012318460C37BD465DF8047B70475C
:1009700080B485B000AFF860B9607A600023184693
:100980001437BD465DF8047B7047000080B586B023
:1009900000AF7860144A154BD31A7B617B693B61C9
:1009A000134B1B68002B02D1114B124A1A60104BDB
:1009B0001A687B6813443A699A4207D201F0FEFC38
:1009C00003460C221A604FF0FF3309E0084B1B6806
:1009D000FB60074B1A687B681344054A1360FB6889
:1009E00018461837BD4680BD0000022000040000F4
:1009F000C80000202002002080B400AF074BD3F8CD
:100A00008830064A43F47003C2F88830034B044A26
:100A10009A6000BFBD465DF8047B704700ED00E0C2
:100A200000000408DFF834D00D480E490E4A0023B8
:100A300002E0D458C4500433C4188C42F9D30B4A92
:100A40000B4C002301E013600432A242FBD3FFF7FA
:100A5000D3FF01F0B9FCFFF791FD704700000220C1
:100A60000000002068000020F02F0408680000202B
:100A70001C020020FEE7000080B500AF0E4B1B6893
:100A80000D4A43F4007313600B4B1B680A4A43F48E
:100A900080631360084B1B68074A43F4807313603C
:100AA000032000F031F90F2000F008F8FFF766FE90
:100AB0000023184680BD00BF003C024080B582B0D4
:100AC00000AF7860124B1A68124B1B7819464FF42E
:100AD0007A73B3FBF1F3B2FBF3F3184600F03BF982
:100AE0000346002B01D001230EE07B680F2B0AD8B0
:100AF000002279684FF0FF3000F011F9064A7B6858
:100B00001360002300E0012318460837BD4680BD6E
:100B100000000020080000200400002080B400AF86
:100B2000064B1B781A46064B1B681344044A136095
:100B300000BFBD465DF8047B704700BF0800002081
:100B4000CC00002080B400AF034B1B681846BD46A4
:100B50005DF8047B704700BFCC00002080B584B0F6
:100B600000AF7860FFF7EEFFB8607B68FB60FB6862
:100B7000B3F1FF3F05D00A4B1B781A46FB681344BC
:100B8000FB6000BFFFF7DEFF0246BB68D31AFA68BE
:100B90009A42F7D800BF00BF1037BD4680BD00BFE6
:100BA0000800002080B485B000AF78607B6803F057
:100BB0000703FB600C4BDB68BB60BA684FF6FF03B2
:100BC0001340BB60FB681A02BB68134343F0BF636A
:100BD00043F40033BB60044ABB68D36000BF1437E2
:100BE000BD465DF8047B704700ED00E080B400AFC7
:100BF000044BDB681B0A03F007031846BD465DF88B
:100C0000047B704700ED00E080B483B000AF034682
:100C10003960FB7197F90730002B0ADB3B68DAB2C9
:100C20000C4997F907301201D2B20B4483F8002324
:100C30000AE03B68DAB20849FB7903F00F03043B92
:100C40001201D2B20B441A7600BF0C37BD465DF8D4
:100C5000047B704700E100E000ED00E080B489B063
:100C600000AFF860B9607A60FB6803F00703FB61CE
:100C7000FB69C3F10703042B28BF0423BB61FB6995
:100C80000433062B02D9FB69033B00E000237B61A0
:100C90004FF0FF32BB6902FA03F3DA43BB681A4034
:100CA0007B699A404FF0FF317B6901FA03F3D94326
:100CB0007B680B40134318462437BD465DF8047B20
:100CC0007047000080B582B000AF78607B68013B60
:100CD000B3F1807F01D301230FE00A4A7B68013B17
:100CE00053600F214FF0FF30FFF78EFF054B0022BE
:100CF0009A60044B07221A60002318460837BD4645
:100D000080BD00BF10E000E080B582B000AF786029
:100D10007868FFF747FF00BF0837BD4680BD80B544
:100D200086B000AF0346B9607A60FB7300237B6135
:100D3000FFF75CFF78617A68B9687869FFF78EFF22
:100D4000024697F90F3011461846FFF75DFF00BFC6
:100D50001837BD4680BD80B582B000AF7860786836
:100D6000FFF7B0FF034618460837BD4680BD0000B8
:100D700080B489B000AF7860396000237B610023C4
:100D80003B610023BB610023FB6159E10122FB6948
:100D900002FA03F37B613B681B687A6913403B618D
:100DA0003A697B699A4240F048813B685B6803F08E
:100DB0000303012B05D03B685B6803F00303022BA0
:100DC00030D17B689B68BB61FB695B00032202FA40
:100DD00003F3DB43BA691340BB613B68DA68FB6924
:100DE0005B0002FA03F3BA691343BB617B68BA691B
:100DF0009A607B685B68BB610122FB6902FA03F3BE
:100E0000DB43BA691340BB613B685B681B0903F0B5
:100E10000102FB6902FA03F3BA691343BB617B6801
:100E2000BA695A603B685B6803F00303032B17D071
:100E30007B68DB68BB61FB695B00032202FA03F39A
:100E4000DB43BA691340BB613B689A68FB695B008E
:100E500002FA03F3BA691343BB617B68BA69DA60CB
:100E60003B685B6803F00303022B23D1FB69DA08BC
:100E70007B68083253F82230BB61FB6903F007033B
:100E80009B000F2202FA03F3DB43BA691340BB61F4
:100E90003B681A69FB6903F007039B0002FA03F33E
:100EA000BA691343BB61FB69DA087B680832B96928
:100EB00043F822107B681B68BB61FB695B0003225F
:100EC00002FA03F3DB43BA691340BB613B685B681A
:100ED00003F00302FB695B0002FA03F3BA691343F0
:100EE000BB617B68BA691A603B685B6803F4403396
:100EF000002B00F0A2800023FB60574B5B6C564A2E
:100F000043F480435364544B5B6C03F48043FB60B5
:100F1000FB68524AFB699B08023352F82330BB61DD
:100F2000FB6903F003039B000F2202FA03F3DB4388
:100F3000BA691340BB617B68494A934219D07B6808
:100F4000484A934213D07B68474A93420DD07B684E
:100F5000464A934207D07B68454A934201D1042315
:100F600008E0072306E0032304E0022302E0012354
:100F700000E00023FA6902F0030292009340BA698C
:100F80001343BB613549FB699B080233BA6941F8D9
:100F90002320384B9B68BB613B69DB43BA69134034
:100FA000BB613B685B6803F48013002B03D0BA6914
:100FB0003B691343BB612F4ABB6993602D4BDB68D0
:100FC000BB613B69DB43BA691340BB613B685B684B
:100FD00003F40013002B03D0BA693B691343BB61D0
:100FE000244ABB69D360234B5B68BB613B69DB432D
:100FF000BA691340BB613B685B6803F40033002BA4
:1010000003D0BA693B691343BB611A4ABB69536099
:10101000184B1B68BB613B69DB43BA691340BB617A
:101020003B685B6803F48033002B03D0BA693B69EB
:101030001343BB610F4ABB691360FB690133FB615A
:10104000FB690F2B7FF6A2AE00BF00BF2437BD4661
:101050005DF8047B704700BF003802400038014053
:10106000000002400004024000080240000C024060
:1010700000100240003C014080B483B000AF7860B3
:101080000B467B8013467B707B78002B03D07A88DD
:101090007B689A6103E07B881A047B689A6100BFD1
:1010A0000C37BD465DF8047B704780B485B000AF57
:1010B00078600B467B807B685B69FB607A88FB68A5
:1010C00013401A04FB68D9437B880B401A437B68A2
:1010D0009A6100BF1437BD465DF8047B704700007D
:1010E00080B586B000AF78607B68002B01D101230A
:1010F00067E27B681B6803F00103002B75D0884B07
:101100009B6803F00C03042B0CD0854B9B6803F009
:101110000C03082B12D1824B5B6803F48003B3F5F8
:10112000800F0BD17E4B1B6803F40033002B5BD088
:101130007B685B68002B57D1012342E27B685B68C8
:10114000B3F5803F06D1764B1B68754A43F4803374
:1011500013601DE07B685B68B3F5A02F0CD1704B6A
:101160001B686F4A43F4802313606D4B1B686C4A05
:1011700043F4803313600BE0694B1B68684A23F427
:1011800080331360664B1B68654A23F48023136029
:101190007B685B68002B13D0FFF7D4FC386108E054
:1011A000FFF7D0FC02463B69D31A642B01D9032315
:1011B00007E25B4B1B6803F40033002BF0D014E014
:1011C000FFF7C0FC386108E0FFF7BCFC02463B6952
:1011D000D31A642B01D90323F3E1514B1B6803F4A9
:1011E0000033002BF0D100E000BF7B681B6803F0E8
:1011F0000203002B63D04A4B9B6803F00C03002BC7
:101200000BD0474B9B6803F00C03082B1CD1444BBD
:101210005B6803F48003002B16D1414B1B6803F07D
:101220000203002B05D07B68DB68012B01D0012372
:10123000C7E13B4B1B6823F0F8027B681B69DB00AE
:10124000374913430B603AE07B68DB68002B20D002
:10125000344B01221A60FFF775FC386108E0FFF794
:1012600071FC02463B69D31A022B01D90323A8E182
:101270002B4B1B6803F00203002BF0D0284B1B689C
:1012800023F0F8027B681B69DB00254913430B60E0
:1012900015E0244B00221A60FFF754FC386108E087
:1012A000FFF750FC02463B69D31A022B01D90323F6
:1012B00087E11B4B1B6803F00203002BF0D17B6816
:1012C0001B6803F00803002B36D07B685B69002B9A
:1012D00016D0154B01221A60FFF734FC386108E084
:1012E000FFF730FC02463B69D31A022B01D90323D6
:1012F00067E10B4B5B6F03F00203002BF0D01BE0A8
:10130000094B00221A60FFF71DFC38610EE0FFF761
:1013100019FC02463B69D31A022B07D9032350E17B
:101320000038024000004742800E4742884B5B6F06
:1013300003F00203002BEAD17B681B6803F004036F
:10134000002B00F097800023FB75814B1B6C03F092
:101350008053002B0FD10023BB607D4B1B6C7C4A5C
:1013600043F0805313647A4B1B6C03F08053BB60D3
:10137000BB680123FB75774B1B6803F48073002B5C
:1013800018D1744B1B68734A43F480731360FFF7E2
:10139000D9FB386108E0FFF7D5FB02463B69D31A59
:1013A000022B01D903230CE16A4B1B6803F4807301
:1013B000002BF0D07B689B68012B06D1644B1B6F20
:1013C000634A43F0010313671CE07B689B68052BAD
:1013D0000CD15F4B1B6F5E4A43F0040313675C4BF9
:1013E0001B6F5B4A43F0010313670BE0584B1B6F05
:1013F000574A23F001031367554B1B6F544A23F0E0
:10140000040313677B689B68002B15D0FFF79AFBDA
:1014100038610AE0FFF796FB02463B69D31A41F2B6
:101420008832934201D90323CBE0494B1B6F03F071
:101430000203002BEED014E0FFF784FB38610AE0D2
:10144000FFF780FB02463B69D31A41F28832934290
:1014500001D90323B5E03E4B1B6F03F00203002BC1
:10146000EED1FB7D012B05D1394B1B6C384A23F0A3
:10147000805313647B689B69002B00F0A180344B80
:101480009B6803F00C03082B5CD07B689B69022BE4
:1014900041D1314B00221A60FFF754FB386108E05C
:1014A000FFF750FB02463B69D31A022B01D90323F5
:1014B00087E0274B1B6803F00073002BF0D17B689B
:1014C000DA697B681B6A1A437B685B6A9B011A4373
:1014D0007B689B6A5B08013B1B041A437B68DB6AE1
:1014E0001B061B4913434B601B4B01221A60FFF77D
:1014F00029FB386108E0FFF725FB02463B69D31A58
:10150000022B01D903235CE0114B1B6803F000732D
:10151000002BF0D054E0104B00221A60FFF712FBB2
:10152000386108E0FFF70EFB02463B69D31A022B35
:1015300001D9032345E0064B1B6803F00073002B21
:10154000F0D13DE07B689B69012B07D1012338E096
:101550000038024000700040600047421B4B5B684F
:10156000FB607B689B69012B28D0FB6803F4800239
:101570007B68DB699A4221D1FB6803F03F027B68FC
:101580001B6A9A421AD1FA6847F6C07313407A6808
:10159000526A9201934211D1FB6803F440327B6896
:1015A0009B6A5B08013B1B049A4207D1FB6803F06E
:1015B00070627B68DB6A1B069A4201D0012300E05F
:1015C000002318461837BD4680BD00BF00380240D2
:1015D00080B584B000AF786039607B68002B01D1A2
:1015E0000123CCE0684B1B6803F007033A689A427A
:1015F0000CD9654B3A68D2B21A70634B1B6803F082
:1016000007033A689A4201D00123B8E07B681B685F
:1016100003F00203002B20D07B681B6803F0040357
:10162000002B05D0594B9B68584A43F4E053936014
:101630007B681B6803F00803002B05D0534B9B68A5
:10164000524A43F460439360504B9B6823F0F0028E
:101650007B689B684D4913438B607B681B6803F074
:101660000103002B44D07B685B68012B07D1474BFB
:101670001B6803F40033002B19D101237FE07B6842
:101680005B68022B03D07B685B68032B07D13F4B61
:101690001B6803F00073002B09D101236FE03B4B63
:1016A0001B6803F00203002B01D1012367E0374BD5
:1016B0009B6823F003027B685B68344913438B60AB
:1016C000FFF740FAF8600AE0FFF73CFA0246FB68D1
:1016D000D31A41F28832934201D903234FE02B4BB6
:1016E0009B6803F00C027B685B689B009A42EBD11D
:1016F000254B1B6803F007033A689A420CD2224B31
:101700003A68D2B21A70204B1B6803F007033A689C
:101710009A4201D0012332E07B681B6803F0040386
:10172000002B08D0194B9B6823F4E0527B68DB68E0
:10173000164913438B607B681B6803F00803002B7A
:1017400009D0124B9B6823F460427B681B69DB0065
:101750000E4913438B6000F021F802460B4B9B6847
:101760001B0903F00F030A49CB5C22FA03F3094A71
:101770001360094B1B681846FFF7A0F900231846B1
:101780001037BD4680BD00BF003C0240003802401B
:10179000942F040800000020040000202DE9B04F21
:1017A00090B000AF00237B630023FB6300233B6307
:1017B0000023BB63594B9B6803F00C03082B0DD02F
:1017C000082B00F2A180002B02D0042B03D09BE059
:1017D000534BBB639BE0534BBB6398E04F4B5B6841
:1017E00003F03F037B634D4B5B6803F48003002BE6
:1017F00028D04A4B5B689B0900223B627A623B6AB5
:10180000C3F308000021474B03FB01F2002300FB58
:1018100003F31344434AA0FB0212FA620A46BA6277
:10182000FA6A1344FB627B6B0022BB61FA61D7E961
:101830000623D7E90A01FEF723FD02460B461346AD
:10184000FB6353E0354B5B689B0900223B617A6187
:101850003B69C3F3080A4FF0000B52465B464FF05A
:1018600000004FF00001590141EAD26150010246E7
:101870000B46B2EB0A0863EB0B094FF000024FF086
:1018800000034FEA891343EA98634FEA8812B2EBE8
:10189000080463EB09054FF000024FF00003EB0072
:1018A00043EA5473E20014461D4614EB0A033B60FE
:1018B00045EB0B037B604FF000024FF00003D7E9CC
:1018C000004529468B02214643EA915321468A026C
:1018D000104619467B6B0022BB60FA60D7E90223F1
:1018E000FEF7CEFC02460B461346FB630B4B5B68D0
:1018F0001B0C03F0030301335B003B63FA6B3B6B90
:10190000B2FBF3F3BB6302E0054BBB6300BFBB6BF1
:1019100018464037BD46BDE8B08F00BF00380240D2
:101920000024F40040787D0180B400AF034B1B68B5
:101930001846BD465DF8047B704700BF00000020DC
:1019400080B500AFFFF7F0FF0246054B9B689B0A8E
:1019500003F007030349CB5C22FA03F3184680BD6A
:1019600000380240A42F040880B500AFFFF7DCFF69
:101970000246054B9B685B0B03F007030349CB5CF6
:1019800022FA03F3184680BD00380240A42F040851
:1019900080B582B000AF78607B68002B01D1012355
:1019A0003FE07B6893F83D30DBB2002B06D17B68CB
:1019B000002283F83C207868FEF708FF7B68242229
:1019C00083F83D207B681B68DA687B681B6822F41B
:1019D0000052DA60786800F029F97B681B681A69A0
:1019E0007B681B6822F490421A617B681B685A6905
:1019F0007B681B6822F02A025A617B681B68DA68E0
:101A00007B681B6842F40052DA607B6800221A642B
:101A10007B68202283F83D207B68202283F83E20CB
:101A2000002318460837BD4680BD80B58AB002AF96
:101A3000F860B9603B601346FB8000237B61FB6864
:101A400093F83D30DBB2202B7CD1BB68002B02D059
:101A5000FB88002B01D1012375E0FB6893F83C3033
:101A6000012B01D102236EE0FB68012283F83C20A8
:101A7000FB6800221A64FB68212283F83D20FFF7EF
:101A800061F87861FB68FA889A84FB68FA88DA84DE
:101A9000FB689B68B3F5805F08D1FB681B69002B6E
:101AA00004D10023FB61BB68BB6103E0BB68FB6141
:101AB0000023BB61FB68002283F83C202AE03B68DE
:101AC00000937B6900228021F86800F040F803460B
:101AD000002B01D0032336E0FB69002B0BD1BB693F
:101AE0001B881A46FB681B68C2F308025A60BB6970
:101AF0000233BB6107E0FB691A78FB681B685A6018
:101B0000FB690133FB61FB68DB8C9BB2013B9AB242
:101B1000FB68DA84FB68DB8C9BB2002BCFD13B687F
:101B200000937B6900224021F86800F010F803461A
:101B3000002B01D0032306E0FB68202283F83D2020
:101B4000002300E0022318462037BD4680BD80B543
:101B500090B000AFF860B9603B601346FB7150E095
:101B6000BB6CB3F1FF3F4CD0BB6C002B07D0FEF732
:101B7000E9FF02463B68D31ABA6C9A4241D2FB682D
:101B80001B680C33BB62BB6A53E8003F7B627B6A15
:101B900023F4D073FB63FB681B680C33FA6B7A6326
:101BA0003B63396B7A6B41E80023FB62FB6A002BD5
:101BB000E5D1FB681B6814337B617B6953E8003F08
:101BC0003B613B6923F00103BB63FB681B68143373
:101BD000BA6B3A62FB61F9693A6A41E80023BB617A
:101BE000BB69002BE5D1FB68202283F83D20FB6810
:101BF000202283F83E20FB68002283F83C20032348
:101C00000FE0FB681B681A68BB681340BA689A4209
:101C10000CBF01230023DBB21A46FB799A429FD006
:101C2000002318464037BD4680BD00002DE9B04F67
:101C3000C0B000AFC7F8F400D7F8F4301B681B69D8
:101C400023F44050D7F8F430D968D7F8F4301A6844
:101C500040EA01031361D7F8F4309A68D7F8F430FA
:101C60001B691A43D7F8F4305B691A43D7F8F4308C
:101C7000DB691343C7F8F830D7F8F4301B68DB682A
:101C800023F4164121F00C01D7F8F4301A68D7F884
:101C9000F8300B43D360D7F8F4301B685B6923F44A
:101CA0004070D7F8F4309969D7F8F4301A6840EAF0
:101CB00001035361D7F8F4301A688F4B9A4205D06C
:101CC000D7F8F4301A688D4B9A4204D1FFF74CFED6
:101CD000C7F8FC0003E0FFF733FEC7F8FC00D7F8B5
:101CE000F430DB69B3F5004F40F00C81D7F8FC30DD
:101CF0000022C7F8E830C7F8EC20D7E93A45224679
:101D00002B469118B9655B41FB65D7E9162321463F
:101D100012EB0108294643EB01094FF000024FF096
:101D200000034FEAC90343EA58734FEAC8029046DA
:101D30009946234618EB0303C7F8E0302B4649EBDE
:101D40000303C7F8E430D7F8F4305B680022C7F823
:101D5000D830C7F8DC20D7E936120B46DB183B65D4
:101D6000134642EB03037B65D7E91423D7E9380117
:101D7000FEF786FA02460B46614BA3FB02235B0982
:101D80001C01D7F8FC300022C7F8D030C7F8D420A7
:101D9000D7E9348942464B469118B9645B41FB64EC
:101DA000D7E91223414612EB010A494643EB010BE6
:101DB0004FF000024FF000034FEACB0343EA5A739F
:101DC0004FEACA0292469B4643461AEB0303C7F802
:101DD000C8304B464BEB0303C7F8CC30D7F8F43090
:101DE0005B680022C7F8C030C7F8C420D7E93012BA
:101DF0000B46DB183B64134642EB03037B64D7E9D5
:101E00001023D7E93201FEF73BFA02460B46114692
:101E10003B4BA3FB01235B09642202FB03F3CB1AB8
:101E2000DB0003F13202364BA3FB02235B095B00AC
:101E300003F4F8731C44D7F8FC300022C7F8B8301C
:101E4000C7F8BC20D7E92E8942464B469118B963A2
:101E50005B41FB63D7E90E2341465118396349467C
:101E60004B417B634FF000024FF00003D7E90CAB0E
:101E70005946CB00514643EA51735146CA001046B9
:101E80001946034642469B18C7F8B0304B460A46EF
:101E900042EB0303C7F8B430D7F8F4305B68002294
:101EA000C7F8A830C7F8AC20D7E92A120B46DB18D0
:101EB000BB62134642EB0303FB62D7E90A23D7E96F
:101EC0002C01FEF7DDF902460B460D4BA3FB021376
:101ED0005B09642101FB03F3D31ADB003233084AA8
:101EE000A2FB03235B0903F00702D7F8F4301B6859
:101EF00022449A6006E100BF001001400014014036
:101F00001F85EB51D7F8FC300022C7F8A030C7F886
:101F1000A420D7E9288942464B46911839625B4193
:101F20007B62D7E9082341465418494643EB010533
:101F30004FF000024FF00003EB0043EA5473E2005D
:101F400014461D464346E318C7F898304B4645EB08
:101F50000303C7F89C30D7F8F4305B680022C7F859
:101F60009030C7F894204FF000024FF00003D7E9FB
:101F7000244529468B00214643EA917321468A0075
:101F8000D7E92601FEF77CF902460B46604BA3FB1E
:101F900002235B091C01D7F8FC300022C7F8883007
:101FA000C7F88C20D7E9228942464B469118B9617F
:101FB0005B41FB61D7E90623414651183961494627
:101FC0004B417B614FF000024FF00003D7E904ABB7
:101FD0005946CB00514643EA51735146CA00104658
:101FE0001946034642469B18C7F880304B460A46BE
:101FF00042EB0303C7F88430D7F8F4305B68002263
:10200000BB67FA674FF000024FF00003D7E91E8963
:1020100049468B00414643EA917341468A00D7E91D
:102020002001FEF72DF902460B461146384BA3FB63
:1020300001235B09642202FB03F3CB1A1B01323339
:10204000334AA2FB03235B0903F0F0031C44D7F8D7
:10205000FC3000223B677A67D7E91C8942464B4631
:102060009118B9605B41FB60D7E9022341465118E2
:10207000396049464B417B604FF000024FF000034E
:10208000D7E900AB5946CB00514643EA517351465C
:10209000CA0010461946034642469B18BB664B468B
:1020A0000A4642EB0303FB66D7F8F4305B68002274
:1020B0003B667A664FF000024FF00003D7E91889BB
:1020C00049468B00414643EA917341468A00D7E96D
:1020D0001A01FEF7D5F802460B460D4BA3FB02137F
:1020E0005B09642101FB03F3D31A1B013233084A55
:1020F000A2FB03235B0903F00F02D7F8F4301B683F
:1021000022449A6000BF07F58077BD46BDE8B08FD6
:102110001F85EB51002310B50446C0E90033C0E928
:102120000433836081814366C2818361194608223A
:102130005C3000F0F4F8054B6362054BA362054B7D
:10214000E362054B2462236310BD00BF992204089B
:10215000BB220408F322040817230408024A034997
:10216000034800F069B800BF0C000020B92C040837
:102170001800002041680C4B994210B5044601D06C
:1021800000F09AFDA168094B994202D0204600F068
:1021900093FDE168064B994204D02046BDE810400B
:1021A00000F08ABD10BD00BFD00000203801002023
:1021B000A001002010B50B4B0B4C0C4A1A602046B6
:1021C00000220421FFF7A6FF04F168000122092183
:1021D000FFF7A0FF04F1D0000222BDE81040122159
:1021E000FFF798BF08020020D00000205D210408FE
:1021F000014800F00DB900BF11020020014800F0B5
:1022000008B900BF1102002010B50446FFF7F0FF27
:10221000236A1BB1BDE81040FFF7F0BF044B2362F7
:10222000044B1B68002BF5D1FFF7C4FFF2E700BF9A
:1022300075210408080200202DE9F8430746884666
:1022400014460026D4E90195B9F1010905D52468A1
:10225000002CF7D13046BDE8F883AB89012B07D9B4
:10226000B5F90E30013303D029463846C04706433E
:102270006835E9E70FB407B5064904AB086853F8B9
:10228000042B8168019300F0E7F903B05DF804EBDB
:1022900004B070476400002010B50C46B1F90E1070
:1022A00000F068F80028ABBF636DA3891B1823F406
:1022B0008053ACBF6365A38110BD2DE9F0411F467B
:1022C0008B89DB0505460C46164605D5B1F90E107F
:1022D0000223002200F03CF8A389B4F90E1023F485
:1022E0008053A38132463B462846BDE8F04100F0CA
:1022F00053B810B50C46B1F90E1000F029F8431C84
:10230000A38915BF606523F4805343F48053A381F0
:1023100018BFA38110BDB1F90E1000F009B8024436
:102320000346934200D1704703F8011BF9E7000010
:1023300038B5064D0023044608462B60FEF7F1FA37
:10234000431C02D12B6803B1236038BD0C0200206E
:1023500038B5074D04460846114600222A601A4641
:10236000FEF706FB431C02D12B6803B1236038BD86
:102370000C02002038B5074D0446084611460022DD
:102380002A601A46FEF794FA431C02D12B6803B167
:10239000236038BD0C02002038B5074D04460846BE
:1023A000114600222A601A46FEF79FFA431C02D10A
:1023B0002B6803B1236038BD0C020020014B186864
:1023C000704700BF6400002070B50D4D0D4C641BBC
:1023D000A4100026A64209D10B4D0C4C00F0BEFD06
:1023E000641BA4100026A64205D170BD55F8043B1D
:1023F00098470136EEE755F8043B98470136F2E777
:10240000E82F0408E82F0408E82F0408EC2F04083C
:102410007047704737B5002944D051F8043C01900B
:10242000002BA1F10404B8BFE41800F0DFF81E4A45
:102430000198136833B96360146003B0BDE830409D
:1024400000F0DAB8A34208D9256861198B4201BFB0
:1024500019685B6849192160EDE71A465B680BB1A2
:10246000A342FAD911685518A5420BD1246821441A
:102470005418A3421160E0D11C685B6853600C449F
:102480001460DAE702D90C230360D6E725686119E6
:102490008B4204BF19685B68636004BF49192160FF
:1024A0005460CAE703B030BD1402002070B50E4E70
:1024B0000C463168054611B900F0BCFC306021467D
:1024C000284600F0B7FC431C0AD0C41C24F00304C7
:1024D000A04207D0211A284600F0ACFC013001D1FF
:1024E0004FF0FF34204670BD180200202DE9F8435C
:1024F000CD1C25F0030508350C2D38BF0C25002D0B
:10250000074601DBA94205D90C233B600026304673
:10251000BDE8F883DFF8D08000F068F8D8F8003024
:102520001C465CBB29463846FFF7C0FF431C0446E7
:1025300055D1D8F800402646002E45D1002C48D071
:1025400023683146384604EB030900F073FC8145EB
:102550003FD121686D1A29463846FFF7A7FF0130A1
:1025600037D023682B442360D8F80030002B38D0B4
:102570005A68A2422BD100225A600FE02268521BF7
:102580001FD40B2A17D96119A342256018BF5960BF
:10259000636808BFC8F8001062514B60384604F108
:1025A0000B0600F029F826F00706231DF21AAED01C
:1025B0009B1BA350ABE7A3426268DDD1C8F80020A3
:1025C000ECE723466468ACE734467668B4E7134624
:1025D000CCE70C233B60384600F00EF897E7256007
:1025E000DCE75B60FFDE00BF140200200148FFF75C
:1025F0000FBF00BF100200200148FFF70ABF00BF55
:10260000100200209368013B002B10B4936008DA9D
:102610009469A34201DB0A2903D15DF8044B00F061
:1026200073BB1368581C1060197008465DF8044BA2
:102630007047F8B506460F461446D518AC4201D18E
:10264000002007E014F8011B3A463046FFF7DAFF96
:10265000431CF3D1F8BD00002DE9F04F0D469DB0AD
:1026600014469846064618B1036A0BB9FFF7CCFD2D
:102670006B6ED90705D4AB899A0502D4A86DFFF714
:10268000C7FEAB891B0701D52B699BB9294630468C
:1026900000F078FB70B16B6EDC0704D54FF0FF30B3
:1026A0001DB0BDE8F08FAB899805F7D4A86DFFF792
:1026B000B0FEF3E70023099320238DF82930CDF8ED
:1026C0000C803023DFF8B0818DF82A304FF00109FB
:1026D00023469A4613F8012B0AB1252AF9D1BAEB01
:1026E000040B0BD05B46224629463046FFF7A1FF7C
:1026F000013000F0A980099A5A4409929AF80030F2
:10270000002B00F0A18000234FF0FF32CDE905231C
:102710000AF1010A049307938DF853301A93544633
:10272000052214F8011B5448FDF75AFD049AD8B944
:10273000D10644BF20238DF85330130744BF2B2309
:102740008DF853309AF800302A2B15D0079A54464A
:1027500000204FF00A0C214611F8013B303B092BB9
:102760004DD9B0B1079214E0A0EB080309FA03F3C6
:1027700013430493A246D2E7039B191D1B680391E0
:10278000002BBBBF5B4242F0020207930793B8BF26
:10279000049223782E2B0CD163782A2B34D1039BFF
:1027A0001A1D1B680392002BB8BF4FF0FF33023491
:1027B0000593DFF8D4A0217803225046FDF710FDE1
:1027C00038B1049BA0EB0A0040228240134301343D
:1027D000049314F8011B29488DF828100622FDF7F0
:1027E000FFFC00283FD0264B1BBB039B073323F085
:1027F000070308330393099B3B44099368E70CFBE9
:1028000002320C460120A6E7002301340593194645
:102810004FF00A0C204610F8012B303A092A03D950
:10282000002BC6D00591C4E70CFB0121044601230F
:10283000F0E703AB00932A46124B04A93046AFF3EE
:1028400000800746781CD6D16B6ED90705D4AB89BA
:102850009A0502D4A86DFFF7DCFDAB895B063FF556
:102860001DAF09981CE703AB00932A46054B04A94A
:10287000304600F079F8E4E7AC2F0408B62F0408DE
:102880000000000033260408B22F04082DE9F047A9
:10289000164699468A680B69DDF820809342B8BFD6
:1028A0001346336091F8432007460C460AB10133C2
:1028B00033602368990642BF33680233336025686A
:1028C00015F0060506D104F1190AE36832689B1A6F
:1028D000AB4226DC94F84320131E226818BF012364
:1028E00092062BD404F1430249463846C0470130D2
:1028F0001ED02368226903F00603042B02BFE5689B
:102900003368ED1AA3680CBF25EAE57500259342EC
:10291000C4BF9B1AED1800261A34B5421AD1002004
:1029200008E00123524649463846C047013003D1EA
:102930004FF0FF30BDE8F0870135C6E7E1185A1CBB
:10294000302081F84300224494F8451082F8431067
:102950000233C7E70123224649463846C0470130C3
:10296000E6D00136D9E700002DE9FF470F7E0C9D28
:10297000782F914680460C469A4601F1430207D8CB
:10298000622F0AD8002F00F0D480582F00F0C080AA
:1029900004F1420584F842703AE0A7F16303152B75
:1029A000F6D801A151F823F0012A0408152A0408D9
:1029B00091290408912904089129040891290408FF
:1029C000152A04089129040891290408912904086A
:1029D00091290408192B0408412A0408D32A040861
:1029E00091290408912904083B2B04089129040823
:1029F000412A04089129040891290408DB2A0408C3
:102A00002B681A1D1B682A6004F1420584F84230C5
:102A100001239FE020682B68070603F10401296069
:102A200001D51E6803E04606FBD5B3F90060002E11
:102A300003DA2D23764284F843305A480A2312E001
:102A40002B682068191D2960050601D51E6802E063
:102A50004106FBD51E8853486F2F0CBF08230A235D
:102A6000002184F843106568A560002DA2BF21688D
:102A700021F0040121600EB9002D4BD01546B6FBA4
:102A8000F3F103FB1167C75D05F8017D3746BB42D3
:102A90000E46F4D9082B0BD12368DE0708D523692D
:102AA00061689942DEBF302305F8013C05F1FF352E
:102AB000521B2261CDF800A04B4603AA2146404696
:102AC000FFF7E4FE01304AD14FF0FF3004B0BDE81B
:102AD000F087236843F0200323603348782784F885
:102AE0004570236829681F0651F8046B02D45F06FD
:102AF00048BFB6B2DF0748BF43F02003296048BF94
:102B000023601EB9236823F0200323601023A7E766
:102B10002448E4E71546BDE72B6826686169181D5F
:102B2000286035061B6801D5196002E07006FBD5E8
:102B30001980002323611546BCE72B681A1D2A6003
:102B40001D68626800212846FDF74AFB08B1401B5A
:102B5000606063682361002384F84330AAE7236937
:102B60002A4649464046D0470130ADD023689B07EE
:102B700013D4E068039B9842B8BF1846A6E7012328
:102B8000324649464046D04701309DD00135E36882
:102B900003995B1AAB42F2DCEBE7002504F119065E
:102BA000F5E700BFBD2F0408CE2F04088A892DE960
:102BB000F041054610070C4658D44B68002B05DC45
:102BC0000B6C002B02DC0020BDE8F081E66A002ED1
:102BD000F9D0002312F480522F68216A2B6032D082
:102BE000606DA3895A0705D56368C01A636B0BB182
:102BF000236CC01A00230246E66A216A2846B047C1
:102C0000431CA38906D129681D292BD8294A0A41CA
:102C1000D60727D400226260D9042269226004D535
:102C2000421C01D12B6803B96065616B2F600029DC
:102C3000C9D004F14403994202D02846FFF7EAFBC9
:102C400000206063C0E701232846B047411CC8D17B
:102C50002B68002BC5D01D2B01D0162B01D12F6066
:102C6000B1E7A38943F04003A381ADE70F69002FCB
:102C7000A9D093070E6808BF4B690F6018BF0023E7
:102C8000A6EB07088B60B8F1000F9CDD216AA66AED
:102C900043463A462846B047002806DCA38943F05D
:102CA0004003A3814FF0FF308EE70744A8EB0008F4
:102CB000E9E700BFFEFFBFDF38B50B6905460C46EC
:102CC00013B90025284638BD18B1036A0BB9FFF7C0
:102CD0009BFAB4F90C30002BF3D0626ED00704D409
:102CE000990502D4A06DFFF793FB28462146FFF714
:102CF0005DFF636EDA070546E4D4A3899B05E1D442
:102D0000A06DFFF786FBDDE7F8B50E4614460546D5
:102D100018B1036A0BB9FFF777FAA369A360A38917
:102D20001A0725D523691BB323682269981A63699A
:102D3000F6B28342374604DC21462846FFF7BCFF43
:102D4000E0B9A368013BA36023685A1C22601E708F
:102D50006269431C9A4204D0A389DB0706D50A2E78
:102D600004D121462846FFF7A7FF38B93846F8BDF9
:102D70002146284600F006F80028D5D04FF0FF374E
:102D8000F4E7000038B52A4B054618680C4618B120
:102D9000036A0BB9FFF738FAA389B4F90C201807B6
:102DA00022D4D90607D409232B6042F04003A38123
:102DB0004FF0FF3034E0580712D5616B41B104F198
:102DC0004403994202D02846FFF724FB00236363A3
:102DD000A38923F02403A381002363602369236074
:102DE000A38943F00803A38123694BB9A38903F4A2
:102DF0002073B3F5007F03D02146284600F050F839
:102E0000A089B4F90C2010F001030AD00023A360BC
:102E100063695B42A361236943B910F08000C4D1A8
:102E200038BD810758BF6369A360F4E70020F7E766
:102E30006400002038B5064D0023044608462B6088
:102E4000FDF7A4FD431C02D12B6803B1236038BDFC
:102E50000C02002070B50C46B1F90E10002996B096
:102E600015461E460DDAA38913F0800F4FF00001BE
:102E70000CBF4FF480634023002031602B6016B0FC
:102E800070BD6A4600F048F80028ECDB019901F4B7
:102E90007041A1F50053594259414FF48063EBE76B
:102EA0008B8973B59D0706460C4607D504F1470389
:102EB000236023610123636102B070BD01AB6A46E8
:102EC000FFF7C8FF009905463046FFF70FFB48B9EA
:102ED000B4F90C309A05EFD423F0030343F0020356
:102EE000A381E3E7A389206043F08003A381009BD3
:102EF0006361019B20615BB1B4F90E10304600F0B4
:102F00001DF828B1A38923F0030343F00103A38133
:102F1000A3891D43A581CFE738B5074D002304469B
:102F2000084611462B60FDF708FD431C02D12B68B3
:102F300003B1236038BD00BF0C02002038B5064D38
:102F40000023044608462B60FDF707FD431C02D111
:102F50002B6803B1236038BD0C020020F8B500BF18
:102F6000F8BC08BC9E467047F8B500BFF8BC08BC6A
:042F70009E467047C2
:102F74005374617274696E67204170706C69636127
:102F840074696F6E202825642E2564290A000000C8
:102F94000000000000000000010203040607080905
:102FA4000000000001020304232D302B2000686C74
:102FB4004C00656667454647003031323334353658
:102FC4003738394142434445460030313233343591
:0C2FD400363738396162636465660000BE
:082FE000D0D2FF7F01000000C8
:042FE800C501040813
:042FEC00A101040833
:102FF0000024F400100000000100000000000000A8
:1030000003000000D000002000000000D0000020DD
:1030100038010020A0010020000000000000000096
:1030200000000000000000000000000000000000A0
:103030000000000000000000000000000000000090
:103040000000000000000000000000000000000080
:08305000000000001800002040
:0400000508040A25BC
:00000001FF
